:100000000C9462000C948A000C948A000C948A0070
:100010000C948A000C948A000C948A000C948A0038
:100020000C948A000C948A000C948A000C948A0028
:100030000C948A000C948A000C948A000C948A0018
:100040000C9427060C948A000C9497060C94710665
:100050000C948A000C948A000C948A000C948A00F8
:100060000C948A000C948A000000000024002700F1
:100070002A0000000000250028002B0000000000DE
:1000800023002600290004040404040404040202DA
:100090000202020203030303030301020408102007
:1000A0004080010204081020010204081020000012
:1000B0000008000201000003040700000000000027
:1000C0000000E90A11241FBECFEFD8E0DEBFCDBF8C
:1000D00022E0A4EDB1E001C01D92A13CB207E1F71E
:1000E00011E0A0E0B1E0E6ECFBE102C005900D926A
:1000F000A43DB107D9F710E0C2E6D0E004C02197D3
:10010000FE010E94BE0BC136D107C9F70E94C90685
:100110000C94E10D0C940000833081F028F48130C0
:1001200099F08230A9F008958730A9F08830C9F09D
:100130008430B1F4809180008F7D03C08091800075
:100140008F7780938000089584B58F7784BD08955C
:1001500084B58F7DFBCF8091B0008F778093B00006
:1001600008958091B0008F7DF9CFCF93DF93282F32
:1001700030E0F901E255FF4F8491F901E656FF4F57
:10018000D491F901EA57FF4FC491CC23A1F081111A
:100190000E948C00EC2FF0E0EE0FFF1FE458FF4FA1
:1001A000A591B491EC91ED2381E090E009F480E019
:1001B000DF91CF91089580E090E0FACF1F93CF9325
:1001C000DF93282F30E0F901E255FF4F8491F901C8
:1001D000E656FF4FD491F901EA57FF4FC491CC2363
:1001E000A9F0162F81110E948C00EC2FF0E0EE0F89
:1001F000FF1FEE58FF4FA591B4918FB7F894EC9183
:10020000111108C0D095DE23DC938FBFDF91CF9111
:100210001F910895DE2BF8CFCF93DF9390E0FC0180
:10022000E656FF4F24918A579F4FFC018491882303
:10023000C9F090E0880F991FFC01E859FF4FA59184
:10024000B491FC01EE58FF4FC591D49161110DC0DE
:100250009FB7F8948C91209582238C9388812823D2
:1002600028839FBFDF91CF910895623051F49FB7EB
:10027000F8943C91822F809583238C93E8812E2BD8
:10028000EFCF8FB7F894EC912E2B2C938FBFEACF42
:100290003FB7F89480911C0290911D02A0911E021C
:1002A000B0911F0226B5A89B05C02F3F19F00196FB
:1002B000A11DB11D3FBFBA2FA92F982F8827BC01C0
:1002C000CD01620F711D811D911D42E0660F771FE8
:1002D000881F991F4A95D1F708950895AF92BF924C
:1002E000CF92DF92EF92FF920F931F93CF93DF9302
:1002F0006C017B018B01040F151FEB015E01AE1831
:10030000BF08C017D10759F06991D601ED91FC9152
:100310000190F081E02DC6010995892B79F7C5017F
:10032000DF91CF911F910F91FF90EF90DF90CF90D1
:10033000BF90AF900895FC01538D448D252F30E080
:10034000842F90E0821B930B541710F0CF960895E2
:1003500001970895FC01918D828D981761F0A28D0F
:10036000AE0FBF2FB11D5D968C91928D9F5F9F73D5
:10037000928F90E008958FEF9FEF0895FC01918D8B
:10038000828D981731F0828DE80FF11D858D90E0F8
:1003900008958FEF9FEF0895FC01918D228D892F95
:1003A00090E0805C9F4F821B91098F73992708957D
:1003B00080E292E00E94CC0121E0892B09F420E048
:1003C000822F089580E090E0892B29F00E94D801C7
:1003D00081110C9400000895FC01A48DA80FB92F81
:1003E000B11DA35ABF4F2C91848D90E001968F735D
:1003F0009927848FA689B7892C93A089B1898C917C
:10040000837080648C93938D848D981306C00288CA
:10041000F389E02D80818F7D80830895EF92FF9294
:100420000F931F93CF93DF93EC0181E0888F9B8D17
:100430008C8D98131AC0E889F989808185FF15C0D1
:100440009FB7F894EE89FF896083E889F9898081F4
:100450008370806480839FBF81E090E0DF91CF91C3
:100460001F910F91FF90EF900895F62E0B8D10E0E5
:100470000F5F1F4F0F731127E02E8C8D8E110CC054
:100480000FB607FCFACFE889F989808185FFF5CF9F
:10049000CE010E94EC01F1CFEB8DEC0FFD2FF11D91
:1004A000E35AFF4FF0829FB7F8940B8FEA89FB89DC
:1004B00080818062CFCFCF93DF93EC01888D88233A
:1004C000B9F0AA89BB89E889F9898C9185FD03C0B7
:1004D000808186FD0DC00FB607FCF7CF8C9185FF9C
:1004E000F2CF808185FFEDCFCE010E94EC01E9CFF4
:1004F000DF91CF91089527E030E090E0AC01022E2B
:1005000002C0559547950A94E2F740FF07C02A9A22
:100510002C9A2C982150310988F708952A98F8CF01
:10052000CF93C82F2B98892F0E947B028C2F0E947B
:100530007B022B9ACF9108951F93CF93DF93182FAF
:10054000C6E0D1E088812296612F0E940C0181E0F3
:10055000C631D807B9F7DF91CF911F91089542E0D6
:1005600050E068E271E080E292E00C946E01CF937B
:10057000DF93FC0101900020E9F73197AF01481BA0
:10058000590BBC0180E292E00E946E01EC010E94D6
:10059000AF028C0F9D1FDF91CF910895CF93DF9312
:1005A000FC01448155816081718180E292E00E946A
:1005B0006E01EC010E94AF028C0F9D1FDF91CF9165
:1005C0000895CF93DF93FC0124813581232B79F0AB
:1005D000C081D181062E000C770BCE010E94B70D91
:1005E000009729F08C1B9D0BDF91CF9108958FEF21
:1005F0009FEFFACFCF93DF93FC01448155814115E2
:100600005105D9F061157105C1F09A01641775079C
:1006100008F49B01EC0188819981421B530B5D8397
:100620004C83BC01620F731F0E94D20DE881F981D7
:100630008C819D81E80FF91F1082DF91CF91089581
:10064000FC0180819181009711F00C94160B60E001
:1006500070E0CB010895FC0124813581232B39F40E
:1006600021E0FB018081882349F020E007C08081E0
:1006700091810E94C20D21E0892BB9F7822F089544
:100680000F931F93CF93DF93EC018881998100979B
:1006900059F02A813B812617370730F081E0DF913E
:1006A000CF911F910F9108958B016F5F7F4F0E9433
:1006B000E90C009759F0998388831B830A832C8166
:1006C0003D81232B59F7FC011082E8CF80E0E7CF72
:1006D000CF93DF93EC0188819981009711F00E94FC
:1006E000600C198218821D821C821B821A82DF9183
:1006F000CF910895EF92FF920F931F93CF93DF93C3
:10070000EC01FB01E080F180E114F10411F10481BE
:10071000158101151105A9F08C819D81080F191F04
:10072000B801CE010E944003882399F028813981C5
:100730008C819D81B701820F931F0E94CB0D1D8379
:100740000C83CE01DF91CF911F910F91FF90EF901D
:100750000895CE010E946803F4CFEF92FF920F93A9
:100760001F93CF93DF93EC017B018A01BA010E94B2
:10077000400381110BC0CE010E946803CE01DF91BE
:10078000CF911F910F91FF90EF9008951D830C83DF
:10079000B701888199810E94CB0DF0CFFB010190B8
:1007A0000020E9F73197AF01461B570B0C94AD03BE
:1007B0000F931F93CF93DF93CDB7DEB729970FB673
:1007C000F894DEBF0FBECDBF8C01862FF8011182D9
:1007D000108213821282158214824AE0BE016F5F7A
:1007E0007F4F90E00E945D0BBE016F5F7F4FC8019D
:1007F0000E94CE0329960FB6F894DEBF0FBECDBF80
:10080000DF91CF911F910F910895CF93DF93EC016A
:10081000FB018617970749F06081718161157105A9
:1008200041F0448155810E94AD03CE01DF91CF910B
:1008300008950E946803F9CFFC011182108213828F
:100840001282158214820C940504FC01118210821C
:100850001382128215821482FB0101900020E9F7B5
:100860003197AF01461B570B0C94AD03FC018081FF
:100870009181009711F00C94600C08957F928F92F3
:100880009F92AF92BF92CF92DF92EF92FF920F931F
:100890001F93CF93DF93CDB7DEB72C970FB6F894A5
:1008A000DEBF0FBECDBF7C015B016DE30E94E102A4
:1008B0008C01B701CE0107960E941C04B8016F5F3E
:1008C0007F4FCE0107960E94FA028501D12CC12CE0
:1008D0006CE2CE0107960E94E1027C018FEFE816E0
:1008E000F80651F58B859C85181619066CF426E0E0
:1008F0002C9DC0012D9D900D1124BE01695F7F4F7D
:100900008A0D9B1D0E940504CE0107960E943604A5
:100910002C960FB6F894DEBF0FBECDBFDF91CF91FE
:100920001F910F91FF90EF90DF90CF90BF90AF900D
:100930009F908F907F9008956AE271E0CE010196BA
:100940000E9425048B859C850097D1F047018E1568
:100950009F0508F44C01EF81F885E80DF91D7080C2
:1009600010826F817885CE01019661157105C1F104
:100970000E94CE038F819885880E991EF4017082A3
:10098000F80180819181009781F169817A816115F7
:10099000710549F1428153812D813E8142175307F0
:1009A00010F10E94CB0D8D819E81F8019583848387
:1009B0001E821D82CE0101960E943604B7016F5F30
:1009C0007F4FCE0107960E94FA02FFEFCF1ADF0A8F
:1009D0000A5F1F4F8AE0C816D10409F079CF94CF7F
:1009E0000E946803C7CF0E94600C89819A81F80138
:1009F000918380838B819C81938382838D819E816F
:100A0000958384831A8219821C821B82D1CF8F9294
:100A10009F92AF92BF92EF92FF920F931F93CF934B
:100A2000DF93C82F90E080E00E949C0260E080E1AC
:100A30000E94DE0060E08FE00E94DE00CC1FCC2729
:100A4000CC1FD0E089E00E94B500C817D907C1F0DB
:100A500061E08FE00E94DE000E9448014B015C01D2
:100A60000E944801681979098A099B09683E734008
:100A700081059105A8F360E08FE00E94DE00E2CFDF
:100A800086E0E82E81E0F82E10E000E0C0E0812C46
:100A9000912C54018394F7018081F2E0EF0EF11C58
:100AA0000E94B500B501A401002E04C0440F551FDB
:100AB000661F771F0A94D2F7892BD1F0C42B0F5FE2
:100AC0001F4F0830110539F761E08FE00E94DE000A
:100AD00061E080E10E94DE008C2FDF91CF911F91B9
:100AE0000F91FF90EF90BF90AF909F908F900895DF
:100AF0004095C423E4CFCF92DF92FF920F931F93D0
:100B0000CF93DF93EC01F62E61E080E10E94DE00DE
:100B100061E08FE00E94DE0061E08EE00E94DE0076
:100B200081E090E00E949C02CE010E94900206E0CB
:100B300011E0D0E0C0E0CF2CD12CF80180810E5F15
:100B40001F4FB6010C2E02C0759567950A94E2F707
:100B500061700E94DE002196C830D10571F760E017
:100B600080E10E94DE0060E08EE00E94DE0061E035
:100B70008EE00E94DE0061E080E10E94DE008F2DA9
:100B8000DF91CF911F910F91FF90DF90CF9008954B
:100B90008F929F92AF92BF92EF92FF920F931F930B
:100BA000CF938C0190E080E00E949C0261E080E1A4
:100BB0000E94DE0061E08FE00E94DE0061E08EE0D6
:100BC0000E94DE00C8010E94900260E080E10E9465
:100BD000DE0060E08FE00E94DE0086E0E82E81E02B
:100BE000F82E10E000E0C0E0812C912C5401839499
:100BF000F7018081F2E0EF0EF11C0E94B500B50113
:100C0000A401002E04C0440F551F661F771F0A94CD
:100C1000D2F7892BC9F0C42B0F5F1F4F0830110585
:100C200039F761E08FE00E94DE0061E080E10E9420
:100C3000DE008C2FCF911F910F91FF90EF90BF900E
:100C4000AF909F908F9008954095C423E5CF1F9259
:100C50000F920FB60F9211242F933F938F939F9370
:100C6000AF93BF938091180290911902A0911A023C
:100C7000B0911B023091170223E0230F2D3758F556
:100C80000196A11DB11D2093170280931802909325
:100C90001902A0931A02B0931B0280911C0290913A
:100CA0001D02A0911E02B0911F020196A11DB11D4F
:100CB00080931C0290931D02A0931E02B0931F020A
:100CC000BF91AF919F918F913F912F910F900FBE48
:100CD0000F901F90189526E8230F0296A11DB11DB5
:100CE000D2CF1F920F920FB60F9211242F933F93E2
:100CF0004F935F936F937F938F939F93AF93BF9324
:100D0000EF93FF9380E292E00E94EC01FF91EF915C
:100D1000BF91AF919F918F917F916F915F914F9113
:100D20003F912F910F900FBE0F901F9018951F921B
:100D30000F920FB60F9211242F938F939F93EF93DF
:100D4000FF93E0913002F09131028081E091360210
:100D5000F091370282FD1BC09081809139028F5F34
:100D60008F7320913A02821741F0E0913902F0E04E
:100D7000E05EFD4F958F80933902FF91EF919F9137
:100D80008F912F910F900FBE0F901F90189580811B
:100D9000F4CFCF93DF93CDB7DEB7C459D1090FB6E7
:100DA000F894DEBF0FBECDBF789484B5826084BD59
:100DB00084B5816084BD85B5826085BD85B581605F
:100DC00085BD80916E00816080936E0010928100DD
:100DD0008091810082608093810080918100816098
:100DE0008093810080918000816080938000809159
:100DF000B10084608093B1008091B00081608093E5
:100E0000B00080917A00846080937A0080917A00AB
:100E1000826080937A0080917A00816080937A006A
:100E200080917A00806880937A001092C10061E01E
:100E30008CE00E940C0161E08AE00E940C0161E0FC
:100E40008BE00E940C0161E08EE00E940C0161E0E9
:100E50008FE00E940C0161E080E10E940C0161E0E2
:100E60008EE00E94DE0061E08FE00E94DE0060E024
:100E700080E10E94DE0012E060E0812F0E940C0100
:100E80001F5F1A30C9F7E0913002F091310282E021
:100E90008083E0912C02F0912D021082E0912E02CD
:100EA000F0912F0280E1808310923802E0913402A9
:100EB000F091350286E08083E0913202F0913302B6
:100EC000808180618083E0913202F09133028081E1
:100ED00088608083E0913202F091330280818068E3
:100EE0008083E0913202F091330280818F7D808394
:100EF0008BE291E00E94B7028AE291E00E94B70281
:100F000080E0682E80E0782E80E292E00E94CC01A2
:100F10006AE271E0892B11F180911402909115021F
:100F20008034910524F0109215021092140280E290
:100F300092E00E94AA012091140230911502F90159
:100F4000EC52FE4F8A3019F08D3009F03FC010820C
:100F5000109215021092140264ED71E0CE018157D7
:100F60009F4F0E942504BE0161577F4FCE018757D6
:100F70009F4F0E941C047E0181E4E80EF11C670172
:100F80009CE3C90ED11C87016AE271E0C7010E948F
:100F90002504E6E0EE0EF11CEC14FD04A9F7C7579A
:100FA000DF4FE880F980C958D040E114F104B1F076
:100FB000F70181917F01882389F0082E000C990B9D
:100FC0000E94A60DF70131978083F2CF80832F5FB7
:100FD0003F4F309315022093140296CF6AE271E0DE
:100FE000CE0187579F4F0E942B038111A7C280918A
:100FF0001602882329F0CE0187579F4F0E94CE0208
:10100000BE0167577F4FCE0183589F4F0E941C043B
:101010006AE271E0CE0101960E9425046DE3CE01E3
:1010200083589F4F0E94E1026C016AE271E0CE0199
:101030008D579F4F0E942504CF57DF4F888199819C
:10104000C158D040009711F176018C159D0508F428
:101050007C01EF96EEADFFADEF97EE0DFF1DD0805A
:101060001082EF966EAD7FADEF97CE018D579F4FFB
:101070006115710509F42AC10E94CE03EF968EAD69
:101080009FADEF97E80EF91EF701D082CE010196D1
:101090000E943604CE0183589F4F0E94360469E4B3
:1010A00071E0CE018D579F4F0E942B038823D9F00A
:1010B000BE0167577F4FCE0101960E941C04B80104
:1010C000CE0101960E943E04CE0101960E94360494
:1010D00067E471E0C8010E942B03882309F4F9C07A
:1010E00081E08093160267E571E0CE018D579F4F36
:1010F0000E942B038823D9F0BE0167577F4FCE0192
:1011000001960E941C04B801CE0101960E943E0483
:10111000CE0101960E9436046EE471E0C8010E947F
:101120002B03882321F08FE591E00E94B7026EE641
:1011300071E0CE018D579F4F0E942B038823E1F170
:10114000BE0167577F4FCE0101960E941C04B80173
:10115000CE0101960E943E04CE0101960E94360403
:101160006AE271E0C8010E942B03811125C0C80109
:101170000E942003CB010E94C805682FCE01019672
:101180000E94D80367E771E0CE0183589F4F0E9409
:101190002504BE016F5F7F4FCE0183589F4F0E9491
:1011A0007A030E94CE02CE0183589F4F0E943604DC
:1011B000CE0101960E94360462E871E0CE018D579F
:1011C0009F4F0E942B03882309F444C0BE01675738
:1011D0007F4FCE0101960E941C04B801CE010196FA
:1011E0000E943E04CE0101960E9436046AE271E03C
:1011F000C8010E942B0381112DC0C80106960E94D0
:101200002003F62EC8010E942003CB016F2D0E94FF
:101210007B050E940705682FCE0101960E94D80326
:101220006CE871E0CE0183589F4F0E942504BE01F7
:101230006F5F7F4FCE0183589F4F0E947A030E94B9
:10124000CE02CE0183589F4F0E943604CE010196F4
:101250000E94360468E971E0CE018D579F4F0E94CD
:101260002B03882309F481C0BE0167577F4FCE014D
:1012700001960E941C04B801CE0101960E943E0412
:10128000CE0101960E9436046AE271E0C8010E9414
:101290002B0381116AC0C8010E9420036B01F12C4D
:1012A000E12CEC14FD0408F060C0C7010E94C805E1
:1012B000898341E050E0BE016F5F7F4F80E292E0A2
:1012C0000E946E01FFEFEF1AFF0AEBCF0E94680346
:1012D000D5CE61ED71E0C8010E942B03882319F07F
:1012E0001092160200CF6EE471E0C8010E942B0339
:1012F000882309F4F8CE80911602EF961FAE1EAE39
:10130000EF97C158DF4F19821882CF57D040CF577F
:10131000DF4F19821882C158D0404AE0BE016F5F8A
:101320007F4F90E00E943D0BBE016F5F7F4FCE016B
:1013300083589F4F0E94CE0360E571E0CE01019675
:101340000E942504BE0163587F4FCE0101960E9482
:101350007A030E94CE02CE0101960E943604CE018D
:1013600083589F4F0E943604BECE63EA71E0CE01DF
:101370008D579F4F0E942B03882309F4A7C0BE01FD
:1013800067577F4FCE0101960E941C04B801CE0121
:1013900001960E943E04CE0101960E9436046AE244
:1013A00071E0C8010E942B03811190C06AE271E0D4
:1013B000C80106960E942B03F82EC8010E94200344
:1013C0006B01F1105DC0F12CE12CEC14FD0408F070
:1013D0007DC0CE0101964C01FC015F01A016B10653
:1013E00071F080E292E00E94CC0118161906B4F761
:1013F00080E292E00E94AA01F5018193EECF61E0C4
:1014000080E10E94DE0061E08FE00E94DE0061E08A
:101410008EE00E94DE0081E090E00E949C02B12CF0
:10142000A12CF40161914F01C7018A0D9B1D0E94FF
:101430007B05FFEFAF1ABF0A90E4A916B10489F744
:101440000E940705B12CA12CC5018E0D9F1D0E9485
:10145000C805EE968FAFEE9741E050E0BE016358AD
:101460007F4F80E292E00E946E01EFEFAE1ABE0A5B
:10147000F0E4AF16B10441F780E4E80EF11CA5CF0B
:10148000F12CE12CEC14FD0408F580E292E00E94BE
:10149000CC0118161906B4F780E292E00E94AA0166
:1014A000B82E682FC7010E947B058B2D0E9407056F
:1014B000898341E050E0BE016F5F7F4F80E292E0A0
:1014C0000E946E019FEFE91AF90ADCCF6FEA71E022
:1014D000CE018D579F4F0E942B03882351F1BE01EF
:1014E00067577F4FCE0101960E941C04B801CE01C0
:1014F00001960E943E04CE0101960E94360467E4E4
:1015000071E0C8010E942B038823D9F16AEA85E5BE
:1015100095E50E947B0565E58AEA9AE20E947B05D3
:1015200060EA85E595E50E947B0589EB91E00E94E4
:10153000B702CE018D579F4F0E9436047801ECE32D
:10154000EE0EF11CF6E0EF1AF108C7010E94360416
:10155000E016F106B9F7CE0187579F4F0E94360477
:10156000CE0181579F4F0E9436046114710409F423
:10157000CBCC0E94D801882309F4C6CC0E9400007D
:10158000C3CC61ED71E0C8010E942B03882389F26E
:101590006AEA85E595E50E947B0565E58AEA9AE2B7
:1015A0000E947B0560E885E595E50E947B056AEA77
:1015B00085E595E50E947B0565E58AEA9AE20E9449
:1015C0007B0560E285E595E50E947B0586EC91E070
:1015D000AECFE0E2F2E01382128288EE93E0A0E068
:1015E000B0E084839583A683B7838AE191E09183F9
:1015F000808385EC90E09587848784EC90E09787E2
:10160000868780EC90E0918B808B81EC90E0938BCF
:10161000828B82EC90E0958B848B86EC90E0978BAC
:10162000868B118E128E138E148E08951F93FC01DB
:1016300099278827BC01E89411911032E9F31930F9
:1016400010F01E30C8F31B3251F01D3249F468947B
:1016500006C00E94480B610F711D811D911D1191E3
:1016600010531A30B0F33EF49095809570956195C3
:101670007F4F8F4F9F4F1F910895BB274A3031F402
:10168000992322F4BDE2909581959F4F0C945E0BB7
:10169000592F482F372F262F660F771F881F991F26
:1016A000660F771F881F991F620F731F841F951F76
:1016B000660F771F881F991F0895BB27FB015527C9
:1016C000AA27880F991FAA1FA41710F0A41B83959F
:1016D0005051B9F7A05DAA3308F0A95DA193009716
:1016E00079F7B111B1931192CB010C94770BDC0116
:1016F000FC01672F71917723E1F7329704C07C9149
:101700006D9370836291AE17BF07C8F308952F924F
:101710003F924F925F926F927F928F929F92AF9281
:10172000BF92CF92DF92EF92FF920F931F93CF93CE
:10173000DF93CDB7DEB7CA1BDB0B0FB6F894DEBF65
:101740000FBECDBF09942A88398848885F846E848B
:101750007D848C849B84AA84B984C884DF80EE80D5
:10176000FD800C811B81AA81B981CE0FD11D0FB6DE
:10177000F894DEBF0FBECDBFED010895EE0FFF1F41
:101780000590F491E02D09940F931F93CF93DF936D
:101790008230910510F482E090E0E091BF02F09178
:1017A000C00230E020E0B0E0A0E0309799F42115CD
:1017B000310509F44AC0281B390B24303105D8F50E
:1017C0008A819B816115710589F1FB019383828375
:1017D000FE0111C0408151810281138148175907D0
:1017E000E0F04817590799F4109761F012960C939E
:1017F000129713961C933296CF01DF91CF911F91D0
:101800000F9108950093BF021093C002F4CF2115E9
:10181000310551F04217530738F0A901DB019A0155
:10182000BD01DF01F801C1CFEF01F9CF9093C002F4
:101830008093BF02CDCFFE01E20FF31F81939193FE
:101840002250310939832883D7CF2091BD023091AE
:10185000BE02232B41F42091020130910301309309
:10186000BE022093BD02209100013091010121159B
:10187000310541F42DB73EB7409104015091050167
:10188000241B350BE091BD02F091BE02E217F30775
:10189000A0F42E1B3F0B2817390778F0AC014E5FE0
:1018A0005F4F2417350748F04E0F5F1F5093BE025D
:1018B0004093BD02819391939FCFF0E0E0E09CCFF5
:1018C000CF93DF930097E9F0FC01329713821282E5
:1018D000A091BF02B091C002ED0130E020E010976E
:1018E000A1F420813181820F931F2091BD0230919C
:1018F000BE022817390709F061C0F093BE02E093D9
:10190000BD02DF91CF910895EA01CE17DF07E8F518
:101910004A815B819E0141155105B1F7E901FB83C5
:10192000EA8349915991C40FD51FEC17FD0761F463
:10193000808191810296840F951FE90199838883A4
:10194000828193819B838A83F0E0E0E012968D91FF
:101950009C9113970097B9F52D913C911197CD016A
:101960000296820F931F2091BD023091BE0228176C
:10197000390739F6309751F51092C0021092BF0224
:10198000B093BE02A093BD02BCCFD383C28340817B
:101990005181840F951FC817D90761F44E5F5F4FBF
:1019A00088819981480F591F518340838A819B8187
:1019B000938382832115310509F0B0CFF093C002E3
:1019C000E093BF029ECFFD01DC01C0CF13821282E3
:1019D000D7CFB0E0A0E0EFEEFCE00C94890B8C01D7
:1019E000009751F4CB010E94C40B8C01C801CDB704
:1019F000DEB7E0E10C94A50BFC01E60FF71F9C019C
:101A000022503109E217F30708F49DC0D901CD91A6
:101A1000DC911197C617D70798F0C530D10530F380
:101A2000CE0104978617970708F3C61BD70B22979A
:101A3000C193D1936D937C93CF010E94600CD6CF5C
:101A40005B01AC1ABD0A4C018C0E9D1EA091BF0219
:101A5000B091C002512C412CF12CE12C109731F5A2
:101A60008091BD029091BE028815990509F05CC075
:101A70004616570608F058C0809100019091010168
:101A8000009741F48DB79EB7409104015091050134
:101A9000841B950BE817F90708F055C0F093BE02B8
:101AA000E093BD02F90171836083A0CF8D919C9179
:101AB000119712966C90129713967C901397A81515
:101AC000B90559F56C0142E0C40ED11CCA14DB04FF
:101AD00020F1AC014A195B09DA011296159780F0E2
:101AE0006282738251834083D9016D937C93E114A8
:101AF000F10471F0D7011396FC93EE93129776CF11
:101B000022968C0F9D1FF90191838083F301EFCF03
:101B1000F093C002E093BF0269CF4816590608F45B
:101B20002C017D01D3019ACFCB010E94C40B7C0113
:101B3000009749F0AE01B8010E94AE0DC8010E94A5
:101B4000600C870153CF10E000E050CF9111089551
:101B500081568A5108F4805285580895FB01DC01B2
:101B600002C001900D9241505040D8F70895FC01F9
:101B70008191861721F08823D9F799270895319705
:101B8000CF010895FB01DC018D91019080190110B6
:101B9000D9F3990B0895FB01DC0101900D9200200F
:101BA000E1F70895FB01DC014150504048F00190FD
:101BB0000D920020C9F701C01D9241505040E0F73E
:061BC0000895F894FFCF28
:101BC6000000C102800002000300040005000600B8
:101BD600070008000900000000000E026E019B01CC
:101BE6005B02CC01AA01BE010D0A00415432384302
:101BF60020454550524F4D2050524F4752414D4D72
:101C0600455220562E312E31004543484F003F00A5
:101C16002B4543484F3D0056455253494F4E002BE6
:101C260056455253494F4E3D302E303033005245C3
:101C3600414442595445002B52454144425954456A
:101C46003D00575249544542595445002B57524975
:101C56005445425954453D0052454144454550522C
:101C66004F4D005752495445454550524F4D00453A
:101C76004E41424C45534450002B454E41424C4543
:101C86005344503D31002B454E41424C4553445040
:041C96003D300000DD
:00000001FF
