:100000000C9462000C948A000C948A000C948A0070
:100010000C948A000C948A000C948A000C948A0038
:100020000C948A000C948A000C948A000C948A0028
:100030000C948A000C948A000C948A000C948A0018
:100040000C9478050C948A000C94E8050C94C20575
:100050000C948A000C948A000C948A000C948A00F8
:100060000C948A000C948A000000000023002600F3
:10007000290000000000240027002A0000000000E2
:10008000250028002B0004040404040404040202D4
:100090000202020203030303030301020408102007
:1000A0004080010204081020010204081020000012
:1000B0000008000201000003040700000000000027
:1000C0000000DD0911241FBECFEFD8E0DEBFCDBF99
:1000D00022E0A6EDB1E001C01D92A33CB207E1F71A
:1000E00011E0A0E0B1E0EEEAF9E102C005900D9266
:1000F000A63DB107D9F710E0C2E6D0E004C02197D1
:10010000FE010E94B20AC136D107C9F70E941A0641
:100110000C94D50C0C940000833081F028F48130CD
:1001200099F08230A9F008958730A9F08830C9F09D
:100130008430B1F4809180008F7D03C08091800075
:100140008F7780938000089584B58F7784BD08955C
:1001500084B58F7DFBCF8091B0008F778093B00006
:1001600008958091B0008F7DF9CF1F93CF93DF93D7
:10017000282F30E0F901E255FF4F8491F901E6564E
:10018000FF4FD491F901EA57FF4FC491CC23A9F056
:10019000162F81110E948C00EC2FF0E0EE0FFF1F54
:1001A000E458FF4FA591B4918FB7F894EC911111D9
:1001B00008C0D095DE23DC938FBFDF91CF911F91D4
:1001C0000895DE2BF8CFCF93DF9390E0FC01E65645
:1001D000FF4F24918A579F4FFC0184918823C9F0D7
:1001E00090E0880F991FFC01EE58FF4FA591B49144
:1001F000FC01E458FF4FC591D49161110DC09FB728
:10020000F8948C91209582238C93888128232883CD
:100210009FBFDF91CF910895623051F49FB7F8945A
:100220003C91822F809583238C93E8812E2BEFCFF6
:100230008FB7F894EC912E2B2C938FBFEACF0895B3
:10024000AF92BF92CF92DF92EF92FF920F931F93E4
:10025000CF93DF936C017B018B01040F151FEB0122
:100260005E01AE18BF08C017D10759F06991D601D9
:10027000ED91FC910190F081E02DC6010995892B4B
:1002800079F7C501DF91CF911F910F91FF90EF900A
:10029000DF90CF90BF90AF900895FC01538D448DB7
:1002A000252F30E0842F90E0821B930B541710F021
:1002B000CF96089501970895FC01918D828D98172E
:1002C00061F0A28DAE0FBF2FB11D5D968C91928D06
:1002D0009F5F9F73928F90E008958FEF9FEF089537
:1002E000FC01918D828D981731F0828DE80FF11D00
:1002F000858D90E008958FEF9FEF0895FC01918D1B
:10030000228D892F90E0805C9F4F821B91098F7313
:100310009927089582E292E00E947E0121E0892BD4
:1003200009F420E0822F089580E090E0892B29F0E5
:100330000E948A0181110C9400000895FC01A48D93
:10034000A80FB92FB11DA35ABF4F2C91848D90E0F7
:1003500001968F739927848FA689B7892C93A089DA
:10036000B1898C91837080648C93938D848D981364
:1003700006C00288F389E02D80818F7D80830895F7
:10038000EF92FF920F931F93CF93DF93EC0181E0E5
:10039000888F9B8D8C8D98131AC0E889F98980818C
:1003A00085FF15C09FB7F894EE89FF896083E889BF
:1003B000F98980818370806480839FBF81E090E0B1
:1003C000DF91CF911F910F91FF90EF900895F62E3E
:1003D0000B8D10E00F5F1F4F0F731127E02E8C8DD8
:1003E0008E110CC00FB607FCFACFE889F98980811D
:1003F00085FFF5CFCE010E949E01F1CFEB8DEC0F72
:10040000FD2FF11DE35AFF4FF0829FB7F8940B8F39
:10041000EA89FB8980818062CFCFCF93DF93EC01A3
:10042000888D8823B9F0AA89BB89E889F9898C91DC
:1004300085FD03C0808186FD0DC00FB607FCF7CF98
:100440008C9185FFF2CF808185FFEDCFCE010E9498
:100450009E01E9CFDF91CF91089527E030E090E051
:10046000AC01022E02C0559547950A94E2F740FF71
:1004700007C02A9A2C9A2C982150310988F70895A0
:100480002A98F8CFCF93C82F2B98892F0E942D023E
:100490008C2F0E942D022B9ACF9108959F92AF929C
:1004A000BF92CF92DF92EF92FF920F931F93CF9361
:1004B000DF937C0106E011E026E1C22E21E0D22E7E
:1004C000E8018881229660E00E94E300CC16DD06F8
:1004D000C1F761E08FE00E94B50060E080E10E941A
:1004E000B50061E08EE00E94B500C7010E944202A3
:1004F00060E08FE00E94B500D0E0C0E0B12CC12CDC
:10050000D12C7601C394F801219131918F013327C9
:10051000F901E255FF4F8491F901E656FF4FA4908F
:10052000F901EA57FF4F9490992071F181110E94CF
:100530008C00E92DF0E0EE0FFF1FE859FF4FA59169
:10054000B491EC91D701C6010C2E04C0880F991FFD
:10055000AA1FBB1F0A94D2F7AE22B1F0B82A219687
:10056000C830D10581F661E08FE00E94B5008B2D87
:10057000DF91CF911F910F91FF90EF90DF90CF907F
:10058000BF90AF909F900895D701C6010C2E04C074
:10059000880F991FAA1FBB1F0A94D2F78095B82213
:1005A000DECF42E050E068E271E082E292E00C943B
:1005B0002001CF93DF93FC0101900020E9F73197F0
:1005C000AF01481B590BBC0182E292E00E9420015E
:1005D000EC010E94D1028C0F9D1FDF91CF910895F5
:1005E000CF93DF93FC01448155816081718182E268
:1005F00092E00E942001EC010E94D1028C0F9D1F0D
:10060000DF91CF910895CF93DF93FC012481358151
:10061000232B79F0C081D181062E000C770BCE01FF
:100620000E94AB0C009729F08C1B9D0BDF91CF91A2
:1006300008958FEF9FEFFACFCF93DF93FC014481B2
:10064000558141155105D9F061157105C1F09A0127
:100650006417750708F49B01EC0188819981421B9E
:10066000530B5D834C83BC01620F731F0E94C60C49
:10067000E881F9818C819D81E80FF91F1082DF915B
:10068000CF910895FC0180819181009711F00C9425
:100690000A0A60E070E0CB010895FC0124813581F5
:1006A000232B39F421E0FB018081882349F020E0ED
:1006B00007C0808191810E94B60C21E0892BB9F797
:1006C000822F08950F931F93CF93DF93EC018881BE
:1006D0009981009759F02A813B812617370730F01E
:1006E00081E0DF91CF911F910F9108958B016F5F92
:1006F0007F4F0E94DD0B009759F0998388831B83FD
:100700000A832C813D81232B59F7FC011082E8CF0D
:1007100080E0E7CFCF93DF93EC0188819981009748
:1007200011F00E94540B198218821D821C821B82B8
:100730001A82DF91CF910895EF92FF920F931F934A
:10074000CF93DF93EC01FB01E080F180E114F10431
:1007500011F10481158101151105A9F08C819D818C
:10076000080F191FB801CE010E946203882399F077
:10077000288139818C819D81B701820F931F0E944E
:10078000BF0C1D830C83CE01DF91CF911F910F9180
:10079000FF90EF900895CE010E948A03F4CFEF926C
:1007A000FF920F931F93CF93DF93EC017B018A019C
:1007B000BA010E94620381110BC0CE010E948A031C
:1007C000CE01DF91CF911F910F91FF90EF9008958F
:1007D0001D830C83B701888199810E94BF0CF0CFE3
:1007E000FB0101900020E9F73197AF01461B570B41
:1007F0000C94CF030F931F93CF93DF93CDB7DEB746
:1008000029970FB6F894DEBF0FBECDBF8C01862F9F
:10081000F8011182108213821282158214824AE03A
:10082000BE016F5F7F4F90E00E94510ABE016F5F73
:100830007F4FC8010E94F00329960FB6F894DEBFDF
:100840000FBECDBFDF91CF911F910F910895CF9330
:10085000DF93EC01FB018617970749F060817181F6
:100860006115710541F0448155810E94CF03CE018D
:10087000DF91CF9108950E948A03F9CFFC01118284
:10088000108213821282158214820C942704FC01B8
:10089000118210821382128215821482FB01019050
:1008A0000020E9F73197AF01461B570B0C94CF039B
:1008B000FC0180819181009711F00C94540B0895F4
:1008C0007F928F929F92AF92BF92CF92DF92EF92E0
:1008D000FF920F931F93CF93DF93CDB7DEB72C9783
:1008E0000FB6F894DEBF0FBECDBF7C015B016DE398
:1008F0000E9403038C01B701CE0107960E943E04BB
:10090000B8016F5F7F4FCE0107960E941C038501DF
:10091000D12CC12C6CE2CE0107960E9403037C010E
:100920008FEFE816F80651F58B859C851816190689
:100930006CF426E02C9DC0012D9D900D1124BE016C
:10094000695F7F4F8A0D9B1D0E942704CE01079689
:100950000E9458042C960FB6F894DEBF0FBECDBF90
:10096000DF91CF911F910F91FF90EF90DF90CF908B
:10097000BF90AF909F908F907F9008956AE271E052
:10098000CE0101960E9447048B859C850097D1F08B
:1009900047018E159F0508F44C01EF81F885E80D9D
:1009A000F91D708010826F817885CE0101966115E6
:1009B0007105C1F10E94F0038F819885880E991E00
:1009C000F4017082F80180819181009781F1698141
:1009D0007A816115710549F1428153812D813E81F2
:1009E0004217530710F10E94BF0C8D819E81F801C0
:1009F000958384831E821D82CE0101960E94580435
:100A0000B7016F5F7F4FCE0107960E941C03FFEF77
:100A1000CF1ADF0A0A5F1F4F8AE0C816D10409F017
:100A200079CF94CF0E948A03C7CF0E94540B89814B
:100A30009A81F801918380838B819C819383828347
:100A40008D819E81958384831A8219821C821B82E8
:100A5000D1CFCF92DF92FF920F931F93CF93DF936B
:100A60006C01F62E06E011E0E8018881229661E033
:100A70000E94E30081E0C631D807B9F761E08FE05A
:100A80000E94B50061E08EE00E94B500C6010E94A0
:100A90004202D0E0C0E0CF2CD12CF80180810E5F63
:100AA0001F4FB6010C2E02C0759567950A94E2F7A8
:100AB00061700E94B5002196C830D10571F760E0E1
:100AC00080E10E94B50060E08EE00E94B50061E028
:100AD0008EE00E94B50060E080E10E94B5008F2D9D
:100AE000DF91CF911F910F91FF90DF90CF900895EC
:100AF0001F920F920FB60F9211242F933F938F9353
:100B00009F93AF93BF9380911E0290911F02A0917B
:100B10002002B091210230911D0223E0230F2D37D6
:100B200058F50196A11DB11D20931D0280931E0250
:100B300090931F02A0932002B0932102809119028A
:100B400090911A02A0911B02B0911C020196A11D66
:100B5000B11D8093190290931A02A0931B02B093C7
:100B60001C02BF91AF919F918F913F912F910F9058
:100B70000FBE0F901F90189526E8230F0296A11D17
:100B8000B11DD2CF1F920F920FB60F9211242F9347
:100B90003F934F935F936F937F938F939F93AF9305
:100BA000BF93EF93FF9382E292E00E949E01FF9138
:100BB000EF91BF91AF919F918F917F916F915F91D5
:100BC0004F913F912F910F900FBE0F901F9018954E
:100BD0001F920F920FB60F9211242F938F939F9312
:100BE000EF93FF93E0913202F09133028081E09124
:100BF0003802F091390282FD1BC0908180913B0246
:100C00008F5F8F7320913C02821741F0E0913B028D
:100C1000F0E0EE5DFD4F958F80933B02FF91EF91E9
:100C20009F918F912F910F900FBE0F901F9018954D
:100C30008081F4CFCF93DF93CDB7DEB7C455D140D9
:100C40000FB6F894DEBF0FBECDBF789484B5826036
:100C500084BD84B5816084BD85B5826085BD85B560
:100C6000816085BD80916E00816080936E001092DE
:100C70008100809181008260809381008091810059
:100C800081608093810080918000816080938000EA
:100C90008091B10084608093B1008091B000816048
:100CA0008093B00080917A00846080937A00809174
:100CB0007A00826080937A0080917A0081608093CC
:100CC0007A0080917A00806880937A001092C10047
:100CD00061E08CE00E94E30061E08AE00E94E300B2
:100CE00061E08BE00E94E30061E08EE00E94E3009F
:100CF00061E08FE00E94E30061E080E10E94E30098
:100D000061E08EE00E94B50061E08FE00E94B500D6
:100D100060E080E10E94B50012E060E0812F0E9457
:100D2000E3001F5F1A30C9F7E0913202F0913302FD
:100D300082E08083E0912E02F0912F021082E091F8
:100D40003002F091310280E1808310923A02E0910A
:100D50003602F091370286E08083E0913402F09110
:100D60003502808180618083E0913402F091350208
:100D7000808188608083E0913402F0913502808127
:100D800080688083E0913402F091350280818F7D0C
:100D900080838BE291E00E94D9028AE291E00E9476
:100DA000D90280E0C82E80E0D82EBB24B39482E222
:100DB00092E00E947E016AE271E0892B11F180913C
:100DC0001602909117028034910524F010921702B8
:100DD0001092160282E292E00E945C0120911602BB
:100DE00030911702F901EA52FE4F8A3019F08D3026
:100DF00009F03FC01082109217021092160266EDA1
:100E000071E0CE01815B9E4F0E944704BE01615B91
:100E10007E4FCE01875B9E4F0E943E047E0181E0A3
:100E2000E80EF81E4701ECE38E0E911C87016AE282
:100E300071E0C7010E944704F6E0EF0EF11CE814D0
:100E4000F904A9F7C75BDE4FE880F980C954D140A7
:100E5000E114F104B1F0F70181917F01882389F059
:100E6000082E000C990B0E949A0CF7013197808391
:100E7000F2CF80832F5F3F4F3093170220931602EB
:100E800096CF6AE271E0CE01875B9E4F0E944D03D0
:100E9000811148C280911802882329F0CE01875B16
:100EA0009E4F0E94F002BE01675B7E4FCE01835CC5
:100EB0009E4F0E943E046AE271E0CE0101960E94BC
:100EC00047046DE3CE01835C9E4F0E9403034C01F7
:100ED0006AE271E0CE018D5B9E4F0E944704CF5BBA
:100EE000DE4F88819981C154D140009741F174014E
:100EF0008815990508F47C01C35CDE4FE881F9810F
:100F0000CD53D140EE0DFF1D90801082C35CDE4FAB
:100F100068817981CD53D140CE018D5B9E4F6115A3
:100F2000710509F43AC10E94F003C35CDE4F888169
:100F30009981CD53D140E80EF91EF7019082CE0180
:100F400001960E945804CE01835C9E4F0E94580473
:100F50006AE471E0CE018D5B9E4F0E944D038823B1
:100F6000D1F0BE01675B7E4FCE0101960E943E0428
:100F7000B801CE0101960E946004CE0101960E9444
:100F8000580466EC71E0C8010E944D03882309F4FF
:100F900007C1B092180268E571E0CE018D5B9E4FEB
:100FA0000E944D038823D9F0BE01675B7E4FCE01BE
:100FB00001960E943E04B801CE0101960E94600491
:100FC000CE0101960E9458046FE471E0C8010E94AE
:100FD0004D03882321F080E691E00E94D90260E76A
:100FE00071E0CE018D5B9E4F0E944D038823E1F19D
:100FF000BE01675B7E4FCE0101960E943E04B801A0
:10100000CE0101960E946004CE0101960E94580410
:101010006AE271E0C8010E944D03811125C0C80138
:101020000E944203CB010E944E02682FCE0101961E
:101030000E94FA0369E771E0CE01835C9E4F0E9433
:101040004704BE016F5F7F4FCE01835C9E4F0E94BD
:101050009C030E94F002CE01835C9E4F0E945804C4
:10106000CE0101960E94580464E871E0CE018D5BC8
:101070009E4F0E944D03882309F442C0BE01675B66
:101080007E4FCE0101960E943E04B801CE0101962A
:101090000E946004CE0101960E9458046AE271E049
:1010A000C8010E944D0381112BC0C80106960E9401
:1010B0004203F62EC8010E944203CB016F2D0E940D
:1010C0002905682FCE0101960E94FA036EE871E0AF
:1010D000CE01835C9E4F0E944704BE016F5F7F4F2D
:1010E000CE01835C9E4F0E949C030E94F002CE01C1
:1010F000835C9E4F0E945804CE0101960E945804C2
:101100006AE971E0CE018D5B9E4F0E944D038823FA
:1011100009F494C0BE01675B7E4FCE0101960E9428
:101120003E04B801CE0101960E946004CE010196F2
:101130000E9458046AE271E0C8010E944D038111C7
:101140007DC0C8010E9442034B01F12CE12C712C9F
:10115000612CE814F90408F071C0C7010E944E0226
:10116000E1E0F0E0EC0FFD1FE60DF71D8083FFEFDF
:101170006F1A7F0A611481E0780659F440E051E06B
:10118000BE016F5F7F4F82E292E00E942001712CCE
:10119000612CEFEFEE1AFE0ADCCF0E948A03C5CE67
:1011A00068E471E0C8010E944D03882319F0109291
:1011B0001802F1CE6FE471E0C8010E944D0388234C
:1011C00009F4E9CE80911802C35CDE4F19821882BF
:1011D000CD53D140C15CDE4F19821882CF53D1402C
:1011E000CF5BDE4F19821882C154D1404AE0BE0164
:1011F0006F5F7F4F90E00E94310ABE016F5F7F4FAB
:10120000CE01835C9E4F0E94F00361E571E0CE0148
:1012100001960E944704BE01635C7E4FCE01019699
:101220000E949C030E94F002CE0101960E94580485
:10123000CE01835C9E4F0E945804ADCE65EA71E0FA
:10124000CE018D5B9E4F0E944D03882399F1BE0114
:10125000675B7E4FCE0101960E943E04B801CE012D
:1012600001960E946004CE0101960E9458046AE231
:1012700071E0C8010E944D0381111CC0C8010E9489
:1012800042034B01F12CE12CE814F90498F482E2BA
:1012900092E00E947E0118161906B4F782E292E0ED
:1012A0000E945C01682FC7010E942905FFEFEF1A19
:1012B000FF0AEACF61EB71E0CE018D5B9E4F0E9489
:1012C0004D03882351F1BE01675B7E4FCE0101962D
:1012D0000E943E04B801CE0101960E946004CE0136
:1012E00001960E94580466EC71E0C8010E944D030B
:1012F0008823D9F16AEA85E595E50E94290565E527
:101300008AEA9AE20E94290560EA85E595E50E944D
:1013100029058BEB91E00E94D902CE018D5B9E4F97
:101320000E94580478018CE3E80EF11CE6E0EE1A06
:10133000F108C7010E945804E016F106B9F7CE0182
:10134000875B9E4F0E945804CE01815B9E4F0E9496
:101350005804C114D10409F42ACD0E948A018823BB
:1013600009F425CD0E94000022CD68E471E0C80197
:101370000E944D03882389F26AEA85E595E50E947B
:10138000290565E58AEA9AE20E94290560E885E573
:1013900095E50E9429056AEA85E595E50E942905FB
:1013A00065E58AEA9AE20E94290560E285E595E50D
:1013B0000E94290588EC91E0AECFE2E2F2E01382D0
:1013C000128288EE93E0A0E0B0E084839583A68348
:1013D000B7838AE191E09183808385EC90E09587E3
:1013E000848784EC90E09787868780EC90E0918BEF
:1013F000808B81EC90E0938B828B82EC90E0958BDC
:10140000848B86EC90E0978B868B118E128E138ED8
:10141000148E08951F93FC0199278827BC01E89436
:1014200011911032E9F3193010F01E30C8F31B325D
:1014300051F01D3249F4689406C00E943C0A610FC5
:10144000711D811D911D119110531A30B0F33EF49E
:1014500090958095709561957F4F8F4F9F4F1F910D
:101460000895BB274A3031F4992322F4BDE29095C8
:1014700081959F4F0C94520A592F482F372F262FB2
:10148000660F771F881F991F660F771F881F991F88
:10149000620F731F841F951F660F771F881F991F88
:1014A0000895BB27FB015527AA27880F991FAA1F5C
:1014B000A41710F0A41B83955051B9F7A05DAA336F
:1014C00008F0A95DA193009779F7B111B19311923A
:1014D000CB010C946B0ADC01FC01672F719177231F
:1014E000E1F7329704C07C916D9370836291AE17DF
:1014F000BF07C8F308952F923F924F925F926F9269
:101500007F928F929F92AF92BF92CF92DF92EF9293
:10151000FF920F931F93CF93DF93CDB7DEB7CA1B14
:10152000DB0B0FB6F894DEBF0FBECDBF09942A883F
:10153000398848885F846E847D848C849B84AA84E7
:10154000B984C884DF80EE80FD800C811B81AA8174
:10155000B981CE0FD11D0FB6F894DEBF0FBECDBF3F
:10156000ED010895EE0FFF1F0590F491E02D099411
:101570000F931F93CF93DF938230910510F482E095
:1015800090E0E091C102F091C20230E020E0B0E0D2
:10159000A0E0309799F42115310509F44AC0281BC1
:1015A000390B24303105D8F58A819B81611571058D
:1015B00089F1FB0193838283FE0111C04081518137
:1015C0000281138148175907E0F04817590799F429
:1015D000109761F012960C93129713961C93329603
:1015E000CF01DF91CF911F910F9108950093C10218
:1015F0001093C202F4CF2115310551F04217530761
:1016000038F0A901DB019A01BD01DF01F801C1CF6A
:10161000EF01F9CF9093C2028093C102CDCFFE01BA
:10162000E20FF31F8193919322503109398328836C
:10163000D7CF2091BF023091C002232B41F42091DB
:101640000201309103013093C0022093BF02209128
:101650000001309101012115310541F42DB73EB74C
:101660004091040150910501241B350BE091BF020C
:10167000F091C002E217F307A0F42E1B3F0B2817CE
:10168000390778F0AC014E5F5F4F2417350748F0FB
:101690004E0F5F1F5093C0024093BF0281939193FE
:1016A0009FCFF0E0E0E09CCFCF93DF930097E9F08D
:1016B000FC01329713821282A091C102B091C20242
:1016C000ED0130E020E01097A1F420813181820FFC
:1016D000931F2091BF023091C0022817390709F0EB
:1016E00061C0F093C002E093BF02DF91CF910895F3
:1016F000EA01CE17DF07E8F54A815B819E014115BB
:101700005105B1F7E901FB83EA8349915991C40F6F
:10171000D51FEC17FD0761F4808191810296840F3B
:10172000951FE90199838883828193819B838A83B2
:10173000F0E0E0E012968D919C9113970097B9F537
:101740002D913C911197CD010296820F931F20910C
:10175000BF023091C0022817390739F6309751F58A
:101760001092C2021092C102B093C002A093BF02B5
:10177000BCCFD383C28340815181840F951FC8178A
:10178000D90761F44E5F5F4F88819981480F591FD7
:10179000518340838A819B81938382832115310504
:1017A00009F0B0CFF093C202E093C1029ECFFD01D9
:1017B000DC01C0CF13821282D7CFB0E0A0E0E3EE0D
:1017C000FBE00C947D0A8C01009751F4CB010E9440
:1017D000B80A8C01C801CDB7DEB7E0E10C94990AD4
:1017E000FC01E60FF71F9C0122503109E217F307B5
:1017F00008F49DC0D901CD91DC911197C617D70788
:1018000098F0C530D10530F3CE01049786179707BD
:1018100008F3C61BD70B2297C193D1936D937C938A
:10182000CF010E94540BD6CF5B01AC1ABD0A4C010C
:101830008C0E9D1EA091C102B091C202512C412C70
:10184000F12CE12C109731F58091BF029091C002EC
:101850008815990509F05CC04616570608F058C06F
:101860008091000190910101009741F48DB79EB7DE
:101870004091040150910501841B950BE817F9076D
:1018800008F055C0F093C002E093BF02F9017183E4
:101890006083A0CF8D919C91119712966C901297B6
:1018A00013967C901397A815B90559F56C0142E081
:1018B000C40ED11CCA14DB0420F1AC014A195B0927
:1018C000DA011296159780F0628273825183408309
:1018D000D9016D937C93E114F10471F0D701139653
:1018E000FC93EE93129776CF22968C0F9D1FF901F1
:1018F00091838083F301EFCFF093C202E093C102A2
:1019000069CF4816590608F42C017D01D3019ACFFE
:10191000CB010E94B80A7C01009749F0AE01B801E2
:101920000E94A20CC8010E94540B870153CF10E003
:1019300000E050CF9111089581568A5108F48052E9
:1019400085580895FB01DC0102C001900D924150C1
:101950005040D8F70895FC018191861721F0882323
:10196000D9F7992708953197CF010895FB01DC013C
:101970008D91019080190110D9F3990B0895FB0105
:10198000DC0101900D920020E1F70895FB01DC01DC
:101990004150504048F001900D920020C9F701C01D
:0E19A0001D9241505040E0F70895F894FFCF9B
:1019AE000000C302800002000300040005000600D0
:1019BE0007000800090000000000C00120014D01D1
:1019CE000D027E015C0170010D0A00415432384354
:1019DE0020454550524F4D2050524F4752414D4D8C
:1019EE00455220562E312E3030004543484F003F91
:1019FE00002B4543484F3D0056455253494F4E002C
:101A0E002B56455253494F4E3D302E3030316200E9
:101A1E005245414442595445002B52454144425986
:101A2E0054453D00575249544542595445002B5791
:101A3E0052495445425954453D005245414445454D
:101A4E0050524F4D005752495445454550524F4DF7
:101A5E0000454E41424C45534450002B454E4142A9
:101A6E004C455344503D31002B454E41424C45535D
:061A7E0044503D30000061
:00000001FF
